{
  "_format": "hh-sol-artifact-1",
  "contractName": "LearnDaoManager",
  "sourceName": "contracts/LearnDao.sol",
  "abi": [
    {
      "inputs": [
        {
          "internalType": "address",
          "name": "admin",
          "type": "address"
        },
        {
          "internalType": "address",
          "name": "wrappableTokenAddress",
          "type": "address"
        }
      ],
      "stateMutability": "nonpayable",
      "type": "constructor"
    },
    {
      "inputs": [
        {
          "internalType": "uint256",
          "name": "amount",
          "type": "uint256"
        }
      ],
      "name": "escrow",
      "outputs": [],
      "stateMutability": "nonpayable",
      "type": "function"
    },
    {
      "inputs": [
        {
          "internalType": "uint256",
          "name": "index",
          "type": "uint256"
        }
      ],
      "name": "executeChangeMember",
      "outputs": [],
      "stateMutability": "nonpayable",
      "type": "function"
    },
    {
      "inputs": [
        {
          "internalType": "uint256",
          "name": "index",
          "type": "uint256"
        }
      ],
      "name": "executePolicyChange",
      "outputs": [],
      "stateMutability": "nonpayable",
      "type": "function"
    },
    {
      "inputs": [
        {
          "internalType": "uint256",
          "name": "amount",
          "type": "uint256"
        }
      ],
      "name": "fund",
      "outputs": [],
      "stateMutability": "nonpayable",
      "type": "function"
    },
    {
      "inputs": [
        {
          "internalType": "uint256",
          "name": "index",
          "type": "uint256"
        }
      ],
      "name": "getChangeMemberProposalsByIndex",
      "outputs": [
        {
          "internalType": "address",
          "name": "",
          "type": "address"
        },
        {
          "internalType": "uint256",
          "name": "",
          "type": "uint256"
        },
        {
          "internalType": "string",
          "name": "",
          "type": "string"
        },
        {
          "internalType": "address",
          "name": "",
          "type": "address"
        },
        {
          "internalType": "int256",
          "name": "",
          "type": "int256"
        },
        {
          "internalType": "uint256",
          "name": "",
          "type": "uint256"
        },
        {
          "internalType": "uint256",
          "name": "",
          "type": "uint256"
        }
      ],
      "stateMutability": "view",
      "type": "function"
    },
    {
      "inputs": [],
      "name": "getChangeMemberProposalsCounter",
      "outputs": [
        {
          "internalType": "uint256",
          "name": "",
          "type": "uint256"
        }
      ],
      "stateMutability": "view",
      "type": "function"
    },
    {
      "inputs": [],
      "name": "getFunds",
      "outputs": [
        {
          "internalType": "uint256",
          "name": "",
          "type": "uint256"
        }
      ],
      "stateMutability": "view",
      "type": "function"
    },
    {
      "inputs": [],
      "name": "getLearnTokenAddress",
      "outputs": [
        {
          "internalType": "address",
          "name": "",
          "type": "address"
        }
      ],
      "stateMutability": "view",
      "type": "function"
    },
    {
      "inputs": [
        {
          "internalType": "address",
          "name": "user",
          "type": "address"
        }
      ],
      "name": "getMemberVotes",
      "outputs": [
        {
          "internalType": "uint256",
          "name": "",
          "type": "uint256"
        }
      ],
      "stateMutability": "view",
      "type": "function"
    },
    {
      "inputs": [],
      "name": "getPolicy",
      "outputs": [
        {
          "internalType": "string",
          "name": "",
          "type": "string"
        }
      ],
      "stateMutability": "view",
      "type": "function"
    },
    {
      "inputs": [
        {
          "internalType": "uint256",
          "name": "i",
          "type": "uint256"
        }
      ],
      "name": "getPolicyProposalAtIndex",
      "outputs": [
        {
          "internalType": "string",
          "name": "",
          "type": "string"
        },
        {
          "internalType": "enum ProposalStatus",
          "name": "",
          "type": "uint8"
        },
        {
          "internalType": "address",
          "name": "",
          "type": "address"
        },
        {
          "internalType": "int256",
          "name": "",
          "type": "int256"
        },
        {
          "internalType": "uint256",
          "name": "",
          "type": "uint256"
        },
        {
          "internalType": "uint256",
          "name": "",
          "type": "uint256"
        }
      ],
      "stateMutability": "view",
      "type": "function"
    },
    {
      "inputs": [],
      "name": "getPolicyProposalsCount",
      "outputs": [
        {
          "internalType": "uint256",
          "name": "",
          "type": "uint256"
        }
      ],
      "stateMutability": "view",
      "type": "function"
    },
    {
      "inputs": [],
      "name": "getSymbol",
      "outputs": [
        {
          "internalType": "string",
          "name": "",
          "type": "string"
        }
      ],
      "stateMutability": "view",
      "type": "function"
    },
    {
      "inputs": [],
      "name": "getVotingCapacity",
      "outputs": [
        {
          "internalType": "uint256",
          "name": "",
          "type": "uint256"
        }
      ],
      "stateMutability": "view",
      "type": "function"
    },
    {
      "inputs": [
        {
          "internalType": "address",
          "name": "user",
          "type": "address"
        },
        {
          "internalType": "string",
          "name": "description",
          "type": "string"
        },
        {
          "internalType": "uint256",
          "name": "amount",
          "type": "uint256"
        }
      ],
      "name": "proposeMemberChange",
      "outputs": [
        {
          "internalType": "uint256",
          "name": "",
          "type": "uint256"
        }
      ],
      "stateMutability": "nonpayable",
      "type": "function"
    },
    {
      "inputs": [
        {
          "internalType": "string",
          "name": "newPolicy",
          "type": "string"
        }
      ],
      "name": "proposePolicy",
      "outputs": [
        {
          "internalType": "uint256",
          "name": "",
          "type": "uint256"
        }
      ],
      "stateMutability": "nonpayable",
      "type": "function"
    },
    {
      "inputs": [],
      "name": "random",
      "outputs": [
        {
          "internalType": "uint256",
          "name": "",
          "type": "uint256"
        }
      ],
      "stateMutability": "view",
      "type": "function"
    },
    {
      "inputs": [
        {
          "internalType": "uint256",
          "name": "amount",
          "type": "uint256"
        }
      ],
      "name": "redeem",
      "outputs": [],
      "stateMutability": "nonpayable",
      "type": "function"
    },
    {
      "inputs": [
        {
          "internalType": "address",
          "name": "voter",
          "type": "address"
        },
        {
          "internalType": "string",
          "name": "category",
          "type": "string"
        },
        {
          "internalType": "uint256",
          "name": "proposalId",
          "type": "uint256"
        }
      ],
      "name": "requireVoteNotCasted",
      "outputs": [],
      "stateMutability": "view",
      "type": "function"
    },
    {
      "inputs": [
        {
          "internalType": "address",
          "name": "to",
          "type": "address"
        },
        {
          "internalType": "uint256",
          "name": "amount",
          "type": "uint256"
        }
      ],
      "name": "transferLearnTokens",
      "outputs": [],
      "stateMutability": "nonpayable",
      "type": "function"
    },
    {
      "inputs": [
        {
          "internalType": "uint256",
          "name": "amount",
          "type": "uint256"
        }
      ],
      "name": "unescrow",
      "outputs": [],
      "stateMutability": "nonpayable",
      "type": "function"
    },
    {
      "inputs": [
        {
          "internalType": "uint256",
          "name": "index",
          "type": "uint256"
        },
        {
          "internalType": "bool",
          "name": "isSupporting",
          "type": "bool"
        }
      ],
      "name": "voteOnChangeMember",
      "outputs": [],
      "stateMutability": "nonpayable",
      "type": "function"
    },
    {
      "inputs": [
        {
          "internalType": "uint256",
          "name": "index",
          "type": "uint256"
        },
        {
          "internalType": "bool",
          "name": "isSupporting",
          "type": "bool"
        }
      ],
      "name": "voteOnPolicyChange",
      "outputs": [],
      "stateMutability": "nonpayable",
      "type": "function"
    }
  ],
  "bytecode": "0x60806040523480156200001157600080fd5b5060405162005694380380620056948339818101604052810190620000379190620006d7565b33600860006101000a81548173ffffffffffffffffffffffffffffffffffffffff021916908373ffffffffffffffffffffffffffffffffffffffff160217905550806000806101000a81548173ffffffffffffffffffffffffffffffffffffffff021916908373ffffffffffffffffffffffffffffffffffffffff16021790555080600160006101000a81548173ffffffffffffffffffffffffffffffffffffffff021916908373ffffffffffffffffffffffffffffffffffffffff16021790555060006200010b620003c860201b60201c565b9050600160009054906101000a900473ffffffffffffffffffffffffffffffffffffffff1673ffffffffffffffffffffffffffffffffffffffff166395d89b416040518163ffffffff1660e01b815260040160006040518083038186803b1580156200017657600080fd5b505afa1580156200018b573d6000803e3d6000fd5b505050506040513d6000823e3d601f19601f82011682018060405250810190620001b691906200071e565b620001c7826200040a60201b60201c565b604051602001620001da9291906200097c565b604051602081830303815290604052600490805190602001906200020092919062000584565b50600160009054906101000a900473ffffffffffffffffffffffffffffffffffffffff1673ffffffffffffffffffffffffffffffffffffffff166306fdde036040518163ffffffff1660e01b815260040160006040518083038186803b1580156200026a57600080fd5b505afa1580156200027f573d6000803e3d6000fd5b505050506040513d6000823e3d601f19601f82011682018060405250810190620002aa91906200071e565b620002bb826200040a60201b60201c565b604051602001620002ce9291906200092d565b60405160208183030381529060405260039080519060200190620002f492919062000584565b5060646006819055506064600760008573ffffffffffffffffffffffffffffffffffffffff1673ffffffffffffffffffffffffffffffffffffffff1681526020019081526020016000208190555060036004604051620003549062000615565b62000361929190620009be565b604051809103906000f0801580156200037e573d6000803e3d6000fd5b50600260006101000a81548173ffffffffffffffffffffffffffffffffffffffff021916908373ffffffffffffffffffffffffffffffffffffffff16021790555050505062000ef6565b60006103e830604051602001620003e0919062000910565b6040516020818303038152906040528051906020012060001c62000405919062000cba565b905090565b6060600082141562000454576040518060400160405280600181526020017f300000000000000000000000000000000000000000000000000000000000000081525090506200057f565b600082905060005b600082146200048c578080620004729062000c44565b915050600a8262000484919062000af1565b91506200045c565b60008167ffffffffffffffff811115620004ab57620004aa62000dae565b5b6040519080825280601f01601f191660200182016040528015620004de5781602001600182028036833780820191505090505b5090505b600085146200057857600182620004fa919062000b29565b9150600a856200050b919062000cba565b603062000519919062000a94565b60f81b81838151811062000532576200053162000d7f565b5b60200101907effffffffffffffffffffffffffffffffffffffffffffffffffffffffffffff1916908160001a905350600a8562000570919062000af1565b9450620004e2565b8093505050505b919050565b828054620005929062000bd8565b90600052602060002090601f016020900481019282620005b6576000855562000602565b82601f10620005d157805160ff191683800117855562000602565b8280016001018555821562000602579182015b8281111562000601578251825591602001919060010190620005e4565b5b50905062000611919062000623565b5090565b611aa48062003bf083390190565b5b808211156200063e57600081600090555060010162000624565b5090565b600062000659620006538462000a22565b620009f9565b90508281526020810184848401111562000678576200067762000de2565b5b6200068584828562000ba2565b509392505050565b6000815190506200069e8162000edc565b92915050565b600082601f830112620006bc57620006bb62000ddd565b5b8151620006ce84826020860162000642565b91505092915050565b60008060408385031215620006f157620006f062000dec565b5b600062000701858286016200068d565b925050602062000714858286016200068d565b9150509250929050565b60006020828403121562000737576200073662000dec565b5b600082015167ffffffffffffffff81111562000758576200075762000de7565b5b6200076684828501620006a4565b91505092915050565b620007846200077e8262000b64565b62000c92565b82525050565b6000620007978262000a6d565b620007a3818562000a89565b9350620007b581856020860162000ba2565b80840191505092915050565b60008154620007d08162000bd8565b620007dc818662000a78565b94506001821660008114620007fa57600181146200080d5762000844565b60ff198316865260208601935062000844565b620008188562000a58565b60005b838110156200083c578154818901526001820191506020810190506200081b565b808801955050505b50505092915050565b60006200085c60068362000a89565b9150620008698262000e0f565b600682019050919050565b60006200088360018362000a89565b9150620008908262000e38565b600182019050919050565b6000620008aa60018362000a89565b9150620008b78262000e61565b600182019050919050565b6000620008d160068362000a89565b9150620008de8262000e8a565b600682019050919050565b6000620008f860018362000a89565b9150620009058262000eb3565b600182019050919050565b60006200091e82846200076f565b60148201915081905092915050565b60006200093a826200084d565b91506200094882856200078a565b9150620009558262000874565b91506200096382846200078a565b915062000970826200089b565b91508190509392505050565b60006200098982620008c2565b91506200099782856200078a565b9150620009a482620008e9565b9150620009b282846200078a565b91508190509392505050565b60006040820190508181036000830152620009da8185620007c1565b90508181036020830152620009f08184620007c1565b90509392505050565b600062000a0562000a18565b905062000a13828262000c0e565b919050565b6000604051905090565b600067ffffffffffffffff82111562000a405762000a3f62000dae565b5b62000a4b8262000df1565b9050602081019050919050565b60008190508160005260206000209050919050565b600081519050919050565b600082825260208201905092915050565b600081905092915050565b600062000aa18262000b98565b915062000aae8362000b98565b9250827fffffffffffffffffffffffffffffffffffffffffffffffffffffffffffffffff0382111562000ae65762000ae562000cf2565b5b828201905092915050565b600062000afe8262000b98565b915062000b0b8362000b98565b92508262000b1e5762000b1d62000d21565b5b828204905092915050565b600062000b368262000b98565b915062000b438362000b98565b92508282101562000b595762000b5862000cf2565b5b828203905092915050565b600062000b718262000b78565b9050919050565b600073ffffffffffffffffffffffffffffffffffffffff82169050919050565b6000819050919050565b60005b8381101562000bc257808201518184015260208101905062000ba5565b8381111562000bd2576000848401525b50505050565b6000600282049050600182168062000bf157607f821691505b6020821081141562000c085762000c0762000d50565b5b50919050565b62000c198262000df1565b810181811067ffffffffffffffff8211171562000c3b5762000c3a62000dae565b5b80604052505050565b600062000c518262000b98565b91507fffffffffffffffffffffffffffffffffffffffffffffffffffffffffffffffff82141562000c875762000c8662000cf2565b5b600182019050919050565b600062000c9f8262000ca6565b9050919050565b600062000cb38262000e02565b9050919050565b600062000cc78262000b98565b915062000cd48362000b98565b92508262000ce75762000ce662000d21565b5b828206905092915050565b7f4e487b7100000000000000000000000000000000000000000000000000000000600052601160045260246000fd5b7f4e487b7100000000000000000000000000000000000000000000000000000000600052601260045260246000fd5b7f4e487b7100000000000000000000000000000000000000000000000000000000600052602260045260246000fd5b7f4e487b7100000000000000000000000000000000000000000000000000000000600052603260045260246000fd5b7f4e487b7100000000000000000000000000000000000000000000000000000000600052604160045260246000fd5b600080fd5b600080fd5b600080fd5b600080fd5b6000601f19601f8301169050919050565b60008160601b9050919050565b7f4c6561726e200000000000000000000000000000000000000000000000000000600082015250565b7f2800000000000000000000000000000000000000000000000000000000000000600082015250565b7f2900000000000000000000000000000000000000000000000000000000000000600082015250565b7f4c4541524e2d0000000000000000000000000000000000000000000000000000600082015250565b7f2d00000000000000000000000000000000000000000000000000000000000000600082015250565b62000ee78162000b64565b811462000ef357600080fd5b50565b612cea8062000f066000396000f3fe608060405234801561001057600080fd5b506004361061014d5760003560e01c8063ca1d209d116100c3578063da37a8cc1161007c578063da37a8cc14610381578063dae43ea51461039f578063db006a75146103bb578063dd70711b146103d7578063e74b100814610407578063ec99b384146104255761014d565b8063ca1d209d146102be578063ce1b4e17146102da578063ce1e46261461030f578063d1b9319c1461032d578063d68ff19114610349578063d9ff0e12146103655761014d565b80634d9b3735116101155780634d9b3735146101e05780635ec01e4d146101fe578063671ec80b1461021c5780636c22665a14610252578063725baaac14610282578063c3b488cd146102a05761014d565b806309feacda146101525780630e8544d51461016e578063150704011461018a57806339b4fee7146101a857806344b0487e146101c4575b600080fd5b61016c60048036038101906101679190611ebe565b610455565b005b61018860048036038101906101839190611f74565b610599565b005b610192610645565b60405161019f9190612312565b60405180910390f35b6101c260048036038101906101bd9190611f74565b61076a565b005b6101de60048036038101906101d99190611fa1565b610a42565b005b6101e8610b2c565b6040516101f5919061249c565b60405180910390f35b610206610b74565b604051610213919061249c565b60405180910390f35b61023660048036038101906102319190611f74565b610bb2565b604051610249979695949392919061229c565b60405180910390f35b61026c60048036038101906102679190611f2b565b610dbe565b604051610279919061249c565b60405180910390f35b61028a610f01565b604051610297919061249c565b60405180910390f35b6102a8610f0b565b6040516102b5919061249c565b60405180910390f35b6102d860048036038101906102d39190611f74565b610f15565b005b6102f460048036038101906102ef9190611f74565b611078565b60405161030696959493929190612334565b60405180910390f35b6103176111d9565b6040516103249190612312565b60405180910390f35b61034760048036038101906103429190611f74565b61126b565b005b610363600480360381019061035e9190611f74565b6115d5565b005b61037f600480360381019061037a9190611fa1565b6116c5565b005b6103896117af565b6040516103969190612221565b60405180910390f35b6103b960048036038101906103b49190611e4f565b6117d9565b005b6103d560048036038101906103d09190611f74565b611868565b005b6103f160048036038101906103ec9190611e22565b6119ed565b6040516103fe919061249c565b60405180910390f35b61040f611a36565b60405161041c919061249c565b60405180910390f35b61043f600480360381019061043a9190611e4f565b611a40565b60405161044c919061249c565b60405180910390f35b600860009054906101000a900473ffffffffffffffffffffffffffffffffffffffff1673ffffffffffffffffffffffffffffffffffffffff163373ffffffffffffffffffffffffffffffffffffffff16146104e5576040517f08c379a00000000000000000000000000000000000000000000000000000000081526004016104dc9061241c565b60405180910390fd5b600260009054906101000a900473ffffffffffffffffffffffffffffffffffffffff1673ffffffffffffffffffffffffffffffffffffffff1663a9059cbb83836040518363ffffffff1660e01b8152600401610542929190612273565b602060405180830381600087803b15801561055c57600080fd5b505af1158015610570573d6000803e3d6000fd5b505050506040513d601f19601f820116820180604052508101906105949190611efe565b505050565b600860009054906101000a900473ffffffffffffffffffffffffffffffffffffffff1673ffffffffffffffffffffffffffffffffffffffff163373ffffffffffffffffffffffffffffffffffffffff1614610629576040517f08c379a00000000000000000000000000000000000000000000000000000000081526004016106209061245c565b60405180910390fd5b806005600082825461063b91906125c8565b9250508190555050565b60606106da6004805461065790612853565b80601f016020809104026020016040519081016040528092919081815260200182805461068390612853565b80156106d05780601f106106a5576101008083540402835291602001916106d0565b820191906000526020600020905b8154815290600101906020018083116106b357829003601f168201915b5050505050611bf9565b600480546106e790612853565b80601f016020809104026020016040519081016040528092919081815260200182805461071390612853565b80156107605780601f1061073557610100808354040283529160200191610760565b820191906000526020600020905b81548152906001019060200180831161074357829003601f168201915b5050505050905090565b60006001905060006103e890506000600e60008581526020019081526020016000206040518060c00160405290816000820180546107a790612853565b80601f01602080910402602001604051908101604052809291908181526020018280546107d390612853565b80156108205780601f106107f557610100808354040283529160200191610820565b820191906000526020600020905b81548152906001019060200180831161080357829003601f168201915b505050505081526020016001820160009054906101000a900473ffffffffffffffffffffffffffffffffffffffff1673ffffffffffffffffffffffffffffffffffffffff1673ffffffffffffffffffffffffffffffffffffffff1681526020016001820160149054906101000a900460ff1660038111156108a4576108a36129bc565b5b60038111156108b6576108b56129bc565b5b815260200160028201548152602001600382015481526020016004820154815250509050600081606001511380156109015750600281608001516108fa919061261e565b8160600151135b610940576040517f08c379a0000000000000000000000000000000000000000000000000000000008152600401610937906123bc565b60405180910390fd5b828160a0015161095091906125c8565b4311610991576040517f08c379a00000000000000000000000000000000000000000000000000000000081526004016109889061247c565b60405180910390fd5b818160a001516109a191906125c8565b43106109e2576040517f08c379a00000000000000000000000000000000000000000000000000000000081526004016109d9906123dc565b60405180910390fd5b8060000151600c90805190602001906109fc929190611cbb565b506002600e600086815260200190815260200160002060010160146101000a81548160ff02191690836003811115610a3757610a366129bc565b5b021790555050505050565b610a82336040518060400160405280600681526020017f4d454d4245520000000000000000000000000000000000000000000000000000815250846117d9565b6000600760003373ffffffffffffffffffffffffffffffffffffffff1673ffffffffffffffffffffffffffffffffffffffff16815260200190815260200160002054905081610afa577fffffffffffffffffffffffffffffffffffffffffffffffffffffffffffffffff81610af7919061264f565b90505b80600e60008581526020019081526020016000206002016000828254610b209190612534565b92505081905550505050565b6000610b6c6040518060400160405280600b81526020017f48656c6c6f20776f726c64000000000000000000000000000000000000000000815250611bf9565b600554905090565b60006103e830604051602001610b8a91906121cd565b6040516020818303038152906040528051906020012060001c610bad919061292d565b905090565b60008060606000806000806000600b60008a8152602001908152602001600020604051806101000160405290816000820160009054906101000a900473ffffffffffffffffffffffffffffffffffffffff1673ffffffffffffffffffffffffffffffffffffffff1673ffffffffffffffffffffffffffffffffffffffff168152602001600182018054610c4490612853565b80601f0160208091040260200160405190810160405280929190818152602001828054610c7090612853565b8015610cbd5780601f10610c9257610100808354040283529160200191610cbd565b820191906000526020600020905b815481529060010190602001808311610ca057829003601f168201915b505050505081526020016002820160009054906101000a900473ffffffffffffffffffffffffffffffffffffffff1673ffffffffffffffffffffffffffffffffffffffff1673ffffffffffffffffffffffffffffffffffffffff1681526020016002820160149054906101000a900460ff166003811115610d4157610d406129bc565b5b6003811115610d5357610d526129bc565b5b8152602001600382015481526020016004820154815260200160058201548152602001600682015481525050905080600001518160800151826020015183604001518460a001518560c001518660e00151975097509750975097509750975050919395979092949650565b60006040518060c001604052808381526020013373ffffffffffffffffffffffffffffffffffffffff16815260200160006003811115610e0157610e006129bc565b5b815260200160008152602001600654815260200143815250600e6000600d6000815480929190610e30906128b6565b9190505581526020019081526020016000206000820151816000019080519060200190610e5e929190611cbb565b5060208201518160010160006101000a81548173ffffffffffffffffffffffffffffffffffffffff021916908373ffffffffffffffffffffffffffffffffffffffff16021790555060408201518160010160146101000a81548160ff02191690836003811115610ed157610ed06129bc565b5b0217905550606082015181600201556080820151816003015560a08201518160040155905050600d549050919050565b6000600654905090565b6000600d54905090565b600160009054906101000a900473ffffffffffffffffffffffffffffffffffffffff1673ffffffffffffffffffffffffffffffffffffffff166323b872dd3330846040518463ffffffff1660e01b8152600401610f749392919061223c565b602060405180830381600087803b158015610f8e57600080fd5b505af1158015610fa2573d6000803e3d6000fd5b505050506040513d601f19601f82011682018060405250810190610fc69190611efe565b5060008190508060056000828254610fde91906125c8565b92505081905550600260009054906101000a900473ffffffffffffffffffffffffffffffffffffffff1673ffffffffffffffffffffffffffffffffffffffff166340c10f1930836040518363ffffffff1660e01b8152600401611042929190612273565b600060405180830381600087803b15801561105c57600080fd5b505af1158015611070573d6000803e3d6000fd5b505050505050565b60606000806000806000600e6000888152602001908152602001600020600001600e600089815260200190815260200160002060010160149054906101000a900460ff16600e60008a815260200190815260200160002060010160009054906101000a900473ffffffffffffffffffffffffffffffffffffffff16600e60008b815260200190815260200160002060020154600e60008c815260200190815260200160002060030154600e60008d81526020019081526020016000206004015485805461114490612853565b80601f016020809104026020016040519081016040528092919081815260200182805461117090612853565b80156111bd5780601f10611192576101008083540402835291602001916111bd565b820191906000526020600020905b8154815290600101906020018083116111a057829003601f168201915b5050505050955095509550955095509550955091939550919395565b6060600c80546111e890612853565b80601f016020809104026020016040519081016040528092919081815260200182805461121490612853565b80156112615780601f1061123657610100808354040283529160200191611261565b820191906000526020600020905b81548152906001019060200180831161124457829003601f168201915b5050505050905090565b60006001905060006103e890506000600b6000858152602001908152602001600020604051806101000160405290816000820160009054906101000a900473ffffffffffffffffffffffffffffffffffffffff1673ffffffffffffffffffffffffffffffffffffffff1673ffffffffffffffffffffffffffffffffffffffff1681526020016001820180546112ff90612853565b80601f016020809104026020016040519081016040528092919081815260200182805461132b90612853565b80156113785780601f1061134d57610100808354040283529160200191611378565b820191906000526020600020905b81548152906001019060200180831161135b57829003601f168201915b505050505081526020016002820160009054906101000a900473ffffffffffffffffffffffffffffffffffffffff1673ffffffffffffffffffffffffffffffffffffffff1673ffffffffffffffffffffffffffffffffffffffff1681526020016002820160149054906101000a900460ff1660038111156113fc576113fb6129bc565b5b600381111561140e5761140d6129bc565b5b8152602001600382015481526020016004820154815260200160058201548152602001600682015481525050905060008160a00151138015611463575060028160c0015161145c919061261e565b8160a00151135b6114a2576040517f08c379a0000000000000000000000000000000000000000000000000000000008152600401611499906123bc565b60405180910390fd5b828160e001516114b291906125c8565b43116114f3576040517f08c379a00000000000000000000000000000000000000000000000000000000081526004016114ea9061247c565b60405180910390fd5b818160e0015161150391906125c8565b4310611544576040517f08c379a000000000000000000000000000000000000000000000000000000000815260040161153b906123dc565b60405180910390fd5b6002600b600086815260200190815260200160002060020160146101000a81548160ff0219169083600381111561157e5761157d6129bc565b5b0217905550806080015160076000836000015173ffffffffffffffffffffffffffffffffffffffff1673ffffffffffffffffffffffffffffffffffffffff1681526020019081526020016000208190555050505050565b600860009054906101000a900473ffffffffffffffffffffffffffffffffffffffff1673ffffffffffffffffffffffffffffffffffffffff163373ffffffffffffffffffffffffffffffffffffffff1614611665576040517f08c379a000000000000000000000000000000000000000000000000000000000815260040161165c906123fc565b60405180910390fd5b60055481116116a9576040517f08c379a00000000000000000000000000000000000000000000000000000000081526004016116a09061243c565b60405180910390fd5b80600560008282546116bb9190612766565b9250508190555050565b611705336040518060400160405280600681526020017f504f4c4943590000000000000000000000000000000000000000000000000000815250846117d9565b6000600760003373ffffffffffffffffffffffffffffffffffffffff1673ffffffffffffffffffffffffffffffffffffffff1681526020019081526020016000205490508161177d577fffffffffffffffffffffffffffffffffffffffffffffffffffffffffffffffff8161177a919061264f565b90505b80600e600085815260200190815260200160002060020160008282546117a39190612534565b92505081905550505050565b6000600260009054906101000a900473ffffffffffffffffffffffffffffffffffffffff16905090565b600960008484846040516020016117f2939291906121e8565b60405160208183030381529060405280519060200120815260200190815260200160002060009054906101000a900460ff16611863576040517f08c379a000000000000000000000000000000000000000000000000000000000815260040161185a9061239c565b60405180910390fd5b505050565b6000819050600260009054906101000a900473ffffffffffffffffffffffffffffffffffffffff1673ffffffffffffffffffffffffffffffffffffffff166323b872dd336000856040518463ffffffff1660e01b81526004016118cd9392919061223c565b602060405180830381600087803b1580156118e757600080fd5b505af11580156118fb573d6000803e3d6000fd5b505050506040513d601f19601f8201168201806040525081019061191f9190611efe565b50600160009054906101000a900473ffffffffffffffffffffffffffffffffffffffff1673ffffffffffffffffffffffffffffffffffffffff1663a9059cbb33836040518363ffffffff1660e01b815260040161197d929190612273565b602060405180830381600087803b15801561199757600080fd5b505af11580156119ab573d6000803e3d6000fd5b505050506040513d601f19601f820116820180604052508101906119cf9190611efe565b5081600560008282546119e29190612766565b925050819055505050565b6000600760008373ffffffffffffffffffffffffffffffffffffffff1673ffffffffffffffffffffffffffffffffffffffff168152602001908152602001600020549050919050565b6000600a54905090565b60006040518061010001604052808573ffffffffffffffffffffffffffffffffffffffff1681526020018481526020013373ffffffffffffffffffffffffffffffffffffffff16815260200160006003811115611aa057611a9f6129bc565b5b815260200183815260200160008152602001600654815260200143815250600b6000600a6000815480929190611ad5906128b6565b91905055815260200190815260200160002060008201518160000160006101000a81548173ffffffffffffffffffffffffffffffffffffffff021916908373ffffffffffffffffffffffffffffffffffffffff1602179055506020820151816001019080519060200190611b4a929190611cbb565b5060408201518160020160006101000a81548173ffffffffffffffffffffffffffffffffffffffff021916908373ffffffffffffffffffffffffffffffffffffffff16021790555060608201518160020160146101000a81548160ff02191690836003811115611bbd57611bbc6129bc565b5b02179055506080820151816003015560a0820151816004015560c0820151816005015560e08201518160060155905050600a5490509392505050565b611c8f81604051602401611c0d9190612312565b6040516020818303038152906040527f41304fac000000000000000000000000000000000000000000000000000000007bffffffffffffffffffffffffffffffffffffffffffffffffffffffff19166020820180517bffffffffffffffffffffffffffffffffffffffffffffffffffffffff8381831617835250505050611c92565b50565b60008151905060006a636f6e736f6c652e6c6f679050602083016000808483855afa5050505050565b828054611cc790612853565b90600052602060002090601f016020900481019282611ce95760008555611d30565b82601f10611d0257805160ff1916838001178555611d30565b82800160010185558215611d30579182015b82811115611d2f578251825591602001919060010190611d14565b5b509050611d3d9190611d41565b5090565b5b80821115611d5a576000816000905550600101611d42565b5090565b6000611d71611d6c846124dc565b6124b7565b905082815260208101848484011115611d8d57611d8c612a4e565b5b611d98848285612811565b509392505050565b600081359050611daf81612c6f565b92915050565b600081359050611dc481612c86565b92915050565b600081519050611dd981612c86565b92915050565b600082601f830112611df457611df3612a49565b5b8135611e04848260208601611d5e565b91505092915050565b600081359050611e1c81612c9d565b92915050565b600060208284031215611e3857611e37612a58565b5b6000611e4684828501611da0565b91505092915050565b600080600060608486031215611e6857611e67612a58565b5b6000611e7686828701611da0565b935050602084013567ffffffffffffffff811115611e9757611e96612a53565b5b611ea386828701611ddf565b9250506040611eb486828701611e0d565b9150509250925092565b60008060408385031215611ed557611ed4612a58565b5b6000611ee385828601611da0565b9250506020611ef485828601611e0d565b9150509250929050565b600060208284031215611f1457611f13612a58565b5b6000611f2284828501611dca565b91505092915050565b600060208284031215611f4157611f40612a58565b5b600082013567ffffffffffffffff811115611f5f57611f5e612a53565b5b611f6b84828501611ddf565b91505092915050565b600060208284031215611f8a57611f89612a58565b5b6000611f9884828501611e0d565b91505092915050565b60008060408385031215611fb857611fb7612a58565b5b6000611fc685828601611e0d565b9250506020611fd785828601611db5565b9150509250929050565b611fea8161279a565b82525050565b612001611ffc8261279a565b6128ff565b82525050565b612010816127ff565b82525050565b61201f816127cb565b82525050565b60006120308261250d565b61203a8185612518565b935061204a818560208601612820565b61205381612a5d565b840191505092915050565b60006120698261250d565b6120738185612529565b9350612083818560208601612820565b80840191505092915050565b600061209c601383612518565b91506120a782612a7b565b602082019050919050565b60006120bf600c83612518565b91506120ca82612aa4565b602082019050919050565b60006120e2601583612518565b91506120ed82612acd565b602082019050919050565b6000612105602383612518565b915061211082612af6565b604082019050919050565b6000612128602183612518565b915061213382612b45565b604082019050919050565b600061214b602183612518565b915061215682612b94565b604082019050919050565b600061216e602583612518565b915061217982612be3565b604082019050919050565b6000612191601783612518565b915061219c82612c32565b602082019050919050565b6121b0816127f5565b82525050565b6121c76121c2826127f5565b612923565b82525050565b60006121d98284611ff0565b60148201915081905092915050565b60006121f48286611ff0565b601482019150612204828561205e565b915061221082846121b6565b602082019150819050949350505050565b60006020820190506122366000830184611fe1565b92915050565b60006060820190506122516000830186611fe1565b61225e6020830185611fe1565b61226b60408301846121a7565b949350505050565b60006040820190506122886000830185611fe1565b61229560208301846121a7565b9392505050565b600060e0820190506122b1600083018a611fe1565b6122be60208301896121a7565b81810360408301526122d08188612025565b90506122df6060830187611fe1565b6122ec6080830186612016565b6122f960a08301856121a7565b61230660c08301846121a7565b98975050505050505050565b6000602082019050818103600083015261232c8184612025565b905092915050565b600060c082019050818103600083015261234e8189612025565b905061235d6020830188612007565b61236a6040830187611fe1565b6123776060830186612016565b61238460808301856121a7565b61239160a08301846121a7565b979650505050505050565b600060208201905081810360008301526123b58161208f565b9050919050565b600060208201905081810360008301526123d5816120b2565b9050919050565b600060208201905081810360008301526123f5816120d5565b9050919050565b60006020820190508181036000830152612415816120f8565b9050919050565b600060208201905081810360008301526124358161211b565b9050919050565b600060208201905081810360008301526124558161213e565b9050919050565b6000602082019050818103600083015261247581612161565b9050919050565b6000602082019050818103600083015261249581612184565b9050919050565b60006020820190506124b160008301846121a7565b92915050565b60006124c16124d2565b90506124cd8282612885565b919050565b6000604051905090565b600067ffffffffffffffff8211156124f7576124f6612a1a565b5b61250082612a5d565b9050602081019050919050565b600081519050919050565b600082825260208201905092915050565b600081905092915050565b600061253f826127cb565b915061254a836127cb565b9250817f7fffffffffffffffffffffffffffffffffffffffffffffffffffffffffffffff038313600083121516156125855761258461295e565b5b817f80000000000000000000000000000000000000000000000000000000000000000383126000831216156125bd576125bc61295e565b5b828201905092915050565b60006125d3826127f5565b91506125de836127f5565b9250827fffffffffffffffffffffffffffffffffffffffffffffffffffffffffffffffff038211156126135761261261295e565b5b828201905092915050565b6000612629826127f5565b9150612634836127f5565b9250826126445761264361298d565b5b828204905092915050565b600061265a826127cb565b9150612665836127cb565b9250827f7fffffffffffffffffffffffffffffffffffffffffffffffffffffffffffffff04821160008413600084131616156126a4576126a361295e565b5b817f800000000000000000000000000000000000000000000000000000000000000005831260008412600084131616156126e1576126e061295e565b5b827f8000000000000000000000000000000000000000000000000000000000000000058212600084136000841216161561271e5761271d61295e565b5b827f7fffffffffffffffffffffffffffffffffffffffffffffffffffffffffffffff058212600084126000841216161561275b5761275a61295e565b5b828202905092915050565b6000612771826127f5565b915061277c836127f5565b92508282101561278f5761278e61295e565b5b828203905092915050565b60006127a5826127d5565b9050919050565b60008115159050919050565b60008190506127c682612c5b565b919050565b6000819050919050565b600073ffffffffffffffffffffffffffffffffffffffff82169050919050565b6000819050919050565b600061280a826127b8565b9050919050565b82818337600083830152505050565b60005b8381101561283e578082015181840152602081019050612823565b8381111561284d576000848401525b50505050565b6000600282049050600182168061286b57607f821691505b6020821081141561287f5761287e6129eb565b5b50919050565b61288e82612a5d565b810181811067ffffffffffffffff821117156128ad576128ac612a1a565b5b80604052505050565b60006128c1826127f5565b91507fffffffffffffffffffffffffffffffffffffffffffffffffffffffffffffffff8214156128f4576128f361295e565b5b600182019050919050565b600061290a82612911565b9050919050565b600061291c82612a6e565b9050919050565b6000819050919050565b6000612938826127f5565b9150612943836127f5565b9250826129535761295261298d565b5b828206905092915050565b7f4e487b7100000000000000000000000000000000000000000000000000000000600052601160045260246000fd5b7f4e487b7100000000000000000000000000000000000000000000000000000000600052601260045260246000fd5b7f4e487b7100000000000000000000000000000000000000000000000000000000600052602160045260246000fd5b7f4e487b7100000000000000000000000000000000000000000000000000000000600052602260045260246000fd5b7f4e487b7100000000000000000000000000000000000000000000000000000000600052604160045260246000fd5b600080fd5b600080fd5b600080fd5b600080fd5b6000601f19601f8301169050919050565b60008160601b9050919050565b7f566f746520616c72656164792063617374656400000000000000000000000000600082015250565b7f4e6f20636f6e73656e7375730000000000000000000000000000000000000000600082015250565b7f457865637574696f6e2064617465207061737365640000000000000000000000600082015250565b7f457363726f77696e67206d75737420626520646f6e652066726f6d207468652060008201527f44414f0000000000000000000000000000000000000000000000000000000000602082015250565b7f54726173666572206d75737420626520646f6e652066726f6d2074686520444160008201527f4f00000000000000000000000000000000000000000000000000000000000000602082015250565b7f4e6f7420656e6f756768206c6561726e20746f6b656e7320746f20657363726f60008201527f7700000000000000000000000000000000000000000000000000000000000000602082015250565b7f556e457363726f77696e67206d75737420626520646f6e652066726f6d20746860008201527f652044414f000000000000000000000000000000000000000000000000000000602082015250565b7f566f74696e67206861736e277420656e64656420796574000000000000000000600082015250565b60048110612c6c57612c6b6129bc565b5b50565b612c788161279a565b8114612c8357600080fd5b50565b612c8f816127ac565b8114612c9a57600080fd5b50565b612ca6816127f5565b8114612cb157600080fd5b5056fea2646970667358221220e75184cfcf8ab5adf9ee7b9040cc2e7b3fbbcf6e1724c201bc321ec44032d2ca64736f6c6343000807003360806040523480156200001157600080fd5b5060405162001aa438038062001aa48339818101604052810190620000379190620001e4565b8181816003908051906020019062000051929190620000b6565b5080600490805190602001906200006a929190620000b6565b50505033600560006101000a81548173ffffffffffffffffffffffffffffffffffffffff021916908373ffffffffffffffffffffffffffffffffffffffff1602179055505050620003ed565b828054620000c490620002fe565b90600052602060002090601f016020900481019282620000e8576000855562000134565b82601f106200010357805160ff191683800117855562000134565b8280016001018555821562000134579182015b828111156200013357825182559160200191906001019062000116565b5b50905062000143919062000147565b5090565b5b808211156200016257600081600090555060010162000148565b5090565b60006200017d620001778462000292565b62000269565b9050828152602081018484840111156200019c576200019b620003cd565b5b620001a9848285620002c8565b509392505050565b600082601f830112620001c957620001c8620003c8565b5b8151620001db84826020860162000166565b91505092915050565b60008060408385031215620001fe57620001fd620003d7565b5b600083015167ffffffffffffffff8111156200021f576200021e620003d2565b5b6200022d85828601620001b1565b925050602083015167ffffffffffffffff811115620002515762000250620003d2565b5b6200025f85828601620001b1565b9150509250929050565b60006200027562000288565b905062000283828262000334565b919050565b6000604051905090565b600067ffffffffffffffff821115620002b057620002af62000399565b5b620002bb82620003dc565b9050602081019050919050565b60005b83811015620002e8578082015181840152602081019050620002cb565b83811115620002f8576000848401525b50505050565b600060028204905060018216806200031757607f821691505b602082108114156200032e576200032d6200036a565b5b50919050565b6200033f82620003dc565b810181811067ffffffffffffffff8211171562000361576200036062000399565b5b80604052505050565b7f4e487b7100000000000000000000000000000000000000000000000000000000600052602260045260246000fd5b7f4e487b7100000000000000000000000000000000000000000000000000000000600052604160045260246000fd5b600080fd5b600080fd5b600080fd5b600080fd5b6000601f19601f8301169050919050565b6116a780620003fd6000396000f3fe608060405234801561001057600080fd5b50600436106100b45760003560e01c806340c10f191161007157806340c10f19146101a357806370a08231146101bf57806395d89b41146101ef578063a457c2d71461020d578063a9059cbb1461023d578063dd62ed3e1461026d576100b4565b806306fdde03146100b9578063095ea7b3146100d757806318160ddd1461010757806323b872dd14610125578063313ce567146101555780633950935114610173575b600080fd5b6100c161029d565b6040516100ce91906110b0565b60405180910390f35b6100f160048036038101906100ec9190610eb4565b61032f565b6040516100fe9190611095565b60405180910390f35b61010f61034d565b60405161011c91906111f2565b60405180910390f35b61013f600480360381019061013a9190610e61565b610357565b60405161014c9190611095565b60405180910390f35b61015d61044f565b60405161016a919061120d565b60405180910390f35b61018d60048036038101906101889190610eb4565b610458565b60405161019a9190611095565b60405180910390f35b6101bd60048036038101906101b89190610eb4565b610504565b005b6101d960048036038101906101d49190610df4565b6105a2565b6040516101e691906111f2565b60405180910390f35b6101f76105ea565b60405161020491906110b0565b60405180910390f35b61022760048036038101906102229190610eb4565b61067c565b6040516102349190611095565b60405180910390f35b61025760048036038101906102529190610eb4565b610767565b6040516102649190611095565b60405180910390f35b61028760048036038101906102829190610e21565b610785565b60405161029491906111f2565b60405180910390f35b6060600380546102ac90611322565b80601f01602080910402602001604051908101604052809291908181526020018280546102d890611322565b80156103255780601f106102fa57610100808354040283529160200191610325565b820191906000526020600020905b81548152906001019060200180831161030857829003601f168201915b5050505050905090565b600061034361033c61080c565b8484610814565b6001905092915050565b6000600254905090565b60006103648484846109df565b6000600160008673ffffffffffffffffffffffffffffffffffffffff1673ffffffffffffffffffffffffffffffffffffffff16815260200190815260200160002060006103af61080c565b73ffffffffffffffffffffffffffffffffffffffff1673ffffffffffffffffffffffffffffffffffffffff1681526020019081526020016000205490508281101561042f576040517f08c379a000000000000000000000000000000000000000000000000000000000815260040161042690611132565b60405180910390fd5b6104438561043b61080c565b858403610814565b60019150509392505050565b60006012905090565b60006104fa61046561080c565b84846001600061047361080c565b73ffffffffffffffffffffffffffffffffffffffff1673ffffffffffffffffffffffffffffffffffffffff16815260200190815260200160002060008873ffffffffffffffffffffffffffffffffffffffff1673ffffffffffffffffffffffffffffffffffffffff168152602001908152602001600020546104f59190611244565b610814565b6001905092915050565b600560009054906101000a900473ffffffffffffffffffffffffffffffffffffffff1673ffffffffffffffffffffffffffffffffffffffff163373ffffffffffffffffffffffffffffffffffffffff1614610594576040517f08c379a000000000000000000000000000000000000000000000000000000000815260040161058b90611192565b60405180910390fd5b61059e8282610c60565b5050565b60008060008373ffffffffffffffffffffffffffffffffffffffff1673ffffffffffffffffffffffffffffffffffffffff168152602001908152602001600020549050919050565b6060600480546105f990611322565b80601f016020809104026020016040519081016040528092919081815260200182805461062590611322565b80156106725780601f1061064757610100808354040283529160200191610672565b820191906000526020600020905b81548152906001019060200180831161065557829003601f168201915b5050505050905090565b6000806001600061068b61080c565b73ffffffffffffffffffffffffffffffffffffffff1673ffffffffffffffffffffffffffffffffffffffff16815260200190815260200160002060008573ffffffffffffffffffffffffffffffffffffffff1673ffffffffffffffffffffffffffffffffffffffff16815260200190815260200160002054905082811015610748576040517f08c379a000000000000000000000000000000000000000000000000000000000815260040161073f906111b2565b60405180910390fd5b61075c61075361080c565b85858403610814565b600191505092915050565b600061077b61077461080c565b84846109df565b6001905092915050565b6000600160008473ffffffffffffffffffffffffffffffffffffffff1673ffffffffffffffffffffffffffffffffffffffff16815260200190815260200160002060008373ffffffffffffffffffffffffffffffffffffffff1673ffffffffffffffffffffffffffffffffffffffff16815260200190815260200160002054905092915050565b600033905090565b600073ffffffffffffffffffffffffffffffffffffffff168373ffffffffffffffffffffffffffffffffffffffff161415610884576040517f08c379a000000000000000000000000000000000000000000000000000000000815260040161087b90611172565b60405180910390fd5b600073ffffffffffffffffffffffffffffffffffffffff168273ffffffffffffffffffffffffffffffffffffffff1614156108f4576040517f08c379a00000000000000000000000000000000000000000000000000000000081526004016108eb906110f2565b60405180910390fd5b80600160008573ffffffffffffffffffffffffffffffffffffffff1673ffffffffffffffffffffffffffffffffffffffff16815260200190815260200160002060008473ffffffffffffffffffffffffffffffffffffffff1673ffffffffffffffffffffffffffffffffffffffff168152602001908152602001600020819055508173ffffffffffffffffffffffffffffffffffffffff168373ffffffffffffffffffffffffffffffffffffffff167f8c5be1e5ebec7d5bd14f71427d1e84f3dd0314c0f7b2291e5b200ac8c7c3b925836040516109d291906111f2565b60405180910390a3505050565b600073ffffffffffffffffffffffffffffffffffffffff168373ffffffffffffffffffffffffffffffffffffffff161415610a4f576040517f08c379a0000000000000000000000000000000000000000000000000000000008152600401610a4690611152565b60405180910390fd5b600073ffffffffffffffffffffffffffffffffffffffff168273ffffffffffffffffffffffffffffffffffffffff161415610abf576040517f08c379a0000000000000000000000000000000000000000000000000000000008152600401610ab6906110d2565b60405180910390fd5b610aca838383610dc0565b60008060008573ffffffffffffffffffffffffffffffffffffffff1673ffffffffffffffffffffffffffffffffffffffff16815260200190815260200160002054905081811015610b50576040517f08c379a0000000000000000000000000000000000000000000000000000000008152600401610b4790611112565b60405180910390fd5b8181036000808673ffffffffffffffffffffffffffffffffffffffff1673ffffffffffffffffffffffffffffffffffffffff16815260200190815260200160002081905550816000808573ffffffffffffffffffffffffffffffffffffffff1673ffffffffffffffffffffffffffffffffffffffff1681526020019081526020016000206000828254610be39190611244565b925050819055508273ffffffffffffffffffffffffffffffffffffffff168473ffffffffffffffffffffffffffffffffffffffff167fddf252ad1be2c89b69c2b068fc378daa952ba7f163c4a11628f55a4df523b3ef84604051610c4791906111f2565b60405180910390a3610c5a848484610dc5565b50505050565b600073ffffffffffffffffffffffffffffffffffffffff168273ffffffffffffffffffffffffffffffffffffffff161415610cd0576040517f08c379a0000000000000000000000000000000000000000000000000000000008152600401610cc7906111d2565b60405180910390fd5b610cdc60008383610dc0565b8060026000828254610cee9190611244565b92505081905550806000808473ffffffffffffffffffffffffffffffffffffffff1673ffffffffffffffffffffffffffffffffffffffff1681526020019081526020016000206000828254610d439190611244565b925050819055508173ffffffffffffffffffffffffffffffffffffffff16600073ffffffffffffffffffffffffffffffffffffffff167fddf252ad1be2c89b69c2b068fc378daa952ba7f163c4a11628f55a4df523b3ef83604051610da891906111f2565b60405180910390a3610dbc60008383610dc5565b5050565b505050565b505050565b600081359050610dd981611643565b92915050565b600081359050610dee8161165a565b92915050565b600060208284031215610e0a57610e096113b2565b5b6000610e1884828501610dca565b91505092915050565b60008060408385031215610e3857610e376113b2565b5b6000610e4685828601610dca565b9250506020610e5785828601610dca565b9150509250929050565b600080600060608486031215610e7a57610e796113b2565b5b6000610e8886828701610dca565b9350506020610e9986828701610dca565b9250506040610eaa86828701610ddf565b9150509250925092565b60008060408385031215610ecb57610eca6113b2565b5b6000610ed985828601610dca565b9250506020610eea85828601610ddf565b9150509250929050565b610efd816112ac565b82525050565b6000610f0e82611228565b610f188185611233565b9350610f288185602086016112ef565b610f31816113b7565b840191505092915050565b6000610f49602383611233565b9150610f54826113c8565b604082019050919050565b6000610f6c602283611233565b9150610f7782611417565b604082019050919050565b6000610f8f602683611233565b9150610f9a82611466565b604082019050919050565b6000610fb2602883611233565b9150610fbd826114b5565b604082019050919050565b6000610fd5602583611233565b9150610fe082611504565b604082019050919050565b6000610ff8602483611233565b915061100382611553565b604082019050919050565b600061101b601c83611233565b9150611026826115a2565b602082019050919050565b600061103e602583611233565b9150611049826115cb565b604082019050919050565b6000611061601f83611233565b915061106c8261161a565b602082019050919050565b611080816112d8565b82525050565b61108f816112e2565b82525050565b60006020820190506110aa6000830184610ef4565b92915050565b600060208201905081810360008301526110ca8184610f03565b905092915050565b600060208201905081810360008301526110eb81610f3c565b9050919050565b6000602082019050818103600083015261110b81610f5f565b9050919050565b6000602082019050818103600083015261112b81610f82565b9050919050565b6000602082019050818103600083015261114b81610fa5565b9050919050565b6000602082019050818103600083015261116b81610fc8565b9050919050565b6000602082019050818103600083015261118b81610feb565b9050919050565b600060208201905081810360008301526111ab8161100e565b9050919050565b600060208201905081810360008301526111cb81611031565b9050919050565b600060208201905081810360008301526111eb81611054565b9050919050565b60006020820190506112076000830184611077565b92915050565b60006020820190506112226000830184611086565b92915050565b600081519050919050565b600082825260208201905092915050565b600061124f826112d8565b915061125a836112d8565b9250827fffffffffffffffffffffffffffffffffffffffffffffffffffffffffffffffff0382111561128f5761128e611354565b5b828201905092915050565b60006112a5826112b8565b9050919050565b60008115159050919050565b600073ffffffffffffffffffffffffffffffffffffffff82169050919050565b6000819050919050565b600060ff82169050919050565b60005b8381101561130d5780820151818401526020810190506112f2565b8381111561131c576000848401525b50505050565b6000600282049050600182168061133a57607f821691505b6020821081141561134e5761134d611383565b5b50919050565b7f4e487b7100000000000000000000000000000000000000000000000000000000600052601160045260246000fd5b7f4e487b7100000000000000000000000000000000000000000000000000000000600052602260045260246000fd5b600080fd5b6000601f19601f8301169050919050565b7f45524332303a207472616e7366657220746f20746865207a65726f206164647260008201527f6573730000000000000000000000000000000000000000000000000000000000602082015250565b7f45524332303a20617070726f766520746f20746865207a65726f20616464726560008201527f7373000000000000000000000000000000000000000000000000000000000000602082015250565b7f45524332303a207472616e7366657220616d6f756e742065786365656473206260008201527f616c616e63650000000000000000000000000000000000000000000000000000602082015250565b7f45524332303a207472616e7366657220616d6f756e742065786365656473206160008201527f6c6c6f77616e6365000000000000000000000000000000000000000000000000602082015250565b7f45524332303a207472616e736665722066726f6d20746865207a65726f20616460008201527f6472657373000000000000000000000000000000000000000000000000000000602082015250565b7f45524332303a20617070726f76652066726f6d20746865207a65726f2061646460008201527f7265737300000000000000000000000000000000000000000000000000000000602082015250565b7f4f6e6c79206f776e657220636f6e74726163742063616e206d696e7400000000600082015250565b7f45524332303a2064656372656173656420616c6c6f77616e63652062656c6f7760008201527f207a65726f000000000000000000000000000000000000000000000000000000602082015250565b7f45524332303a206d696e7420746f20746865207a65726f206164647265737300600082015250565b61164c8161129a565b811461165757600080fd5b50565b611663816112d8565b811461166e57600080fd5b5056fea2646970667358221220f6f7e39144840d8d840bb48b70b0288c9aa1ea384d1d51720b33b4a4edcbe00064736f6c63430008070033",
  "linkReferences": {},
  "deployedLinkReferences": {}
}